:200000000040002009E1000001C9011001C9011001C9011001C9011001C9011001C9011074
:1C00200001C9011001C9011001C9011001C9011001C9011001C901103FC9011089
:20003C002DE9F84FDFF82485DFF82415DFF8246588F80000002008600821DFF81C050170BD
:20005C000D21418040F222318180DFF810050660B77EDFF80C050770FF2FF17E417008BF14
:20007C00FF29327F8270737FC370B57F0571F67F467115D1FF2A08BFFF2B11D1FF2D08BFC9
:20009C00FF2E0DD1DFF8DC140A7802704A7842708A788270CA78C2700A7902714979417138
:2000BC00DFF8C41402780A70FF2542784A7082788A70C278CA7002790A714079DFF8AC242B
:2000DC004871DFF8AC14DFF8AC04057045708570C5700571457100200880DFF89C144E6BC5
:2000FC00DFF898147078087031781170B078DFF890140870B1680879DFF88814421E0A70D5
:20011C00F078DFF884140870F068DFF88014086008B910F085F83069DFF87444206008B9A2
:20013C0010F07EF82068DFF86C7401688847216851F8042F38469047DFF85C04DFF85C14DE
:20015C003862DFF85C0478627069086008B910F067F8B069DFF84C14086008B910F060F8A6
:20017C00F069DFF84414086008B910F059F8DFF83CB4DFF83C649BF8040010F031FE3060CD
:20019C0008B900F045B99BF80500DFF8287410F027FE386008B9306837E19BF80600DFF8EB
:2001BC00184410F01DFE206020B9306810F028FE38682AE19BF80700DFF8009410F010FED7
:2001DC00C9F8000038B9306810F01AFE386810F017FE206819E1DFF894130A789BF80000D7
:2001FC00DFF8DCA3921C504380B210F0F9FDCAF8080058B9306810F003FE386810F000FE12
:20021C00206810F0FDFDD9F80000FEE0D7480078002800F00281BBF80210DFF8A8B34843DD
:20023C0080B210F0DDFDCBF8040078B9306810F0E7FD386810F0E4FD206810F0E1FDD9F86A
:20025C00000010F0DDFDDAF80800DEE0C748007810F0C6FDDC49086080B9306810F0D0FD9B
:20027C00386810F0CDFDD9F8000010F0C9FDDAF8080010F0C5FDDBF80400C6E0BB480078CD
:20029C001821484310F0ACFDD04A1060B0B9306810F0B6FD386810F0B3FD206810F0B0FD12
:2002BC00D9F8000010F0ACFDDAF8080010F0A8FDDBF8040010F0A4FDC348A5E0AB480078B6
:2002DC00400110F08DFDC2490860D8B9306810F097FD386810F094FD206810F091FDD9F8EF
:2002FC00000010F08DFDDAF8080010F089FDDBF8040010F085FDB448006810F081FDB349C1
:20031C00086882E099480078000110F069FDB1490860F0B9306810F073FD386810F070FD0F
:20033C00206810F06DFDD9F8000010F069FDDAF8080010F065FDDBF8040010F061FDA2481D
:20035C00006810F05DFDA149086810F059FDA0485AE086480078000110F042FD9E49086018
:20037C0018BB306810F04CFD386810F049FD206810F046FDD9F8000010F042FDDAF8080012
:20039C0010F03EFDDBF8040010F03AFD8E48006810F036FD8D49086810F032FD8C480068D6
:2003BC0010F02EFD8B4908682FE0704800783021484310F015FD894A106070BB306810F07F
:2003DC001FFD386810F01CFD206810F019FDD9F8000010F015FDDAF8080010F011FDDBF8F0
:2003FC00040010F00DFD7848006810F009FD7749086810F005FD7648006810F001FD754991
:20041C00086810F0FDFC7448006810F0F9FC00200FF006FF4FF4804191E031680120087172
:20043C003068057331684D73306885733168CD7330680574002031684D743268D072A022A5
:20045C003168487103213068C28001720720316848720020326890722821306841820121C1
:20047C00C176002031684877326882F85E0001203168087732684B4E82F85D0039680871E2
:20049C003868057339684D73386885733968CD7338680574002039684D743A68D07239682E
:2004BC0048713A6890724FF4207039680022C88008818A7401213A68D17421680D732268C2
:2004DC00557321688D732268D57321680D740021226855742368D97201212268117100213A
:2004FC00236859712168C8800881002088722168887405202268D07439480168884731684D
:20051C00054608688047326852F8041F0020884719481D4BC16818780A88324902430A80E9
:20053C00284631490A6890470C21304800F060F8104800F061F800F063F84FF4005198F871
:20055C000000BDE8F44F08F01BB800BF6E4F0020044F0020B63F0050604E0020084F002033
:20057C002C4E0020E81200503C4E00207B4F00200C4F0020344E0020342801006D4F002091
:20059C006B4F0020724F00206C4F0020F04E0020F44E00207C4B0020FD0D0100F84E002091
:2005BC001D0E0100FC4E00202C1F00205C0D0020104F0020144F0020184F00201C4F002081
:2005DC00D81E0020684E0020004F0020804E0020844E0020884E00208C4E0020904E0020D6
:2005FC00B00B0020544F0020B40B0020F84D0020DFF800F0E5710110DFF800F01D6E01106C
:20061C00DFF800F04D71011000B5ADF1140D02928DF80E10ADF80C0000208DF80F004FE2E7
:20063C009DF80E00102805D10299AC48102209F04BFF85E218208DF80F0081E29DF80E00B0
:20065C00102805D10299AF48102209F03DFF77E218208DF80F0073E29DF80E00042804D159
:20067C000298B049006808606AE218208DF80F0066E29DF80E00012844D1AD480078012824
:20069C003CD0AC4800788DF810000298A949007808709DF81000B0B1A648007898B9AF4801
:2006BC000078022804D0AD480078052840F04882AB48017850200DF02BFCAA4902461020A9
:2006DC0009F0FCF83CE29DF81000002840F0388298480078002800F03382A048007801288E
:2006FC0008D09E480078042804D09C480078052840F02682012010F04BFA21E212208DF827
:20071C000F001DE218208DF80F0019E29DF80E0001284CD187480078012844D08448007837
:20073C008DF8100002988249007808709DF81000D0B17F480078B8B988480078032808D092
:20075C0086480078072804D084480078052840F0F7818348017850200DF0DAFB8149024683
:20077C00102009F0ABF8EBE19DF81000002840F0E7816F480078002800F0E281774800787F
:20079C0001280CD075480078042808D073480078062804D071480078052840F0D1810120C9
:2007BC0010F0F6F9CCE112208DF80F00C8E118208DF80F00C4E19DF80E00022804D1029865
:2007DC00B84900880880BBE118208DF80F00B7E19DF80E001F2821DCB54800211F220AF0AC
:2007FC00C5FF02999DF80E20B14809F06DFE9DF80E00B04908705A48017850200DF088FB3F
:20081C000246AC480078AC490090A94801230190102009F053F88DF80F0091E118208DF8A6
:20083C000F008DE19DF80E001F2821DCA34800211F220AF09BFF02999DF80E209F4809F019
:20085C0043FE9DF80E00C04908704548017850200DF05EFB0246BC48007897490090974838
:20087C0000230190102009F029F88DF80F0067E118208DF80F0063E19DF80E00012808D1CD
:20089C0002980078042804DC0298B0490078087056E118208DF80F0052E19DF80E00012899
:2008BC0008D102980078032804DC0298A8490078087045E118208DF80F0041E19DF80E00F4
:2008DC00062806D10298A34902680A608088888036E118208DF80F0032E1C046901E0020C3
:2008FC009DF80E00012808D102980078072804DC029899490078087022E118208DF80F00DB
:20091C001EE1C046A01E00209DF80E0001280BD102980078032807DC0298904900780870AD
:20093C000EE1C046641E002018208DF80F0007E1D10B0020D00B00209DF80E00012808D1B4
:20095C0002980078062804DA0298854900780870F6E018208DF80F00F2E0C046601E0020ED
:20097C00581E00209945011002980088ADF810009DF80E0002280DD1BDF81000062809DB7D
:20099C00BDF81000B0F5486F04DCBDF8100075490880D5E018208DF80F00D1E002980088DB
:2009BC00ADF810009DF80E0002280DD1BDF81000062809DBBDF81000B0F5486F04DCBDF82E
:2009DC00100069490880BBE018208DF80F00B7E002980088ADF810009DF80E00022809D135
:2009FC00BDF81000B0F5FA7F04DABDF810005F490880A5E018208DF80F00A1E00298008831
:200A1C00ADF810009DF80E0002280DD1BDF810000A2809DBBDF81000B0F5486F04DCBDF8C9
:200A3C001000534908808BE018208DF80F0087E0029800788DF810009DF80E00012819D16B
:200A5C009DF81000012815D14A480FF041FD68B94349002008F07EF88DF80F009DF80F0084
:200A7C0000286DD1444810F061F869E016208DF80F0065E018208DF80F0061E0BDF80C00E9
:200A9C002A2811DA9DF80E0002280DD102983B49BDF80C200388102008F010FF8DF80F00FD
:200ABC004EE0C046D20B002002208DF80F0047E0700B0020D40B0020094501108F0B002059
:200ADC00BDF80C00A0F201301A28D7D801A151F8200087463D060000590600007506000090
:200AFC00990A00008F060000D3070000ED0700004108000095080000B7080000D90800004E
:200B1C00FD08000025090000990A0000990A00005509000085090000B9090000ED0900009C
:200B3C00190A0000990A0000990A0000990A0000990A00004D0A0000990A000029070000C0
:200B5C009DF80F0005B000BDD50B0020681E0020691E0020460E00206A1E00206B1E002051
:200B7C00740D0020760D0020780D00207A0D00207C0D0020601D00203C1D00203DF20000DB
:200B9C002DE9F84FD84CA178FF2904BF00200FF047FBA0780FF0D4FF044604F1680504F1C8
:200BBC0090062968086810B10022E2830CE0A87B002804BFA97E002906D13078002801BF89
:200BDC00217F0129608CE0832189E08B4118491C6181204600F09CF901281EBFC3480178B6
:200BFC00012904D120890022401CE28360814FF6FF77A87E01280DD1AA8B6189208900F0CD
:200C1C008BF938B1218960894A1C93B298421BD0A88B0FE03078012816D1728861892089E1
:200C3C0000F07AF980B1218960894A1C93B298420AD0708892B2904206D03818608180B2CB
:200C5C0000F06EF93F18E78304F5967999F8040020B120890021401CE183608104F12E075D
:200C7C00A87E01283ED12289A88B521C92B2904238D1608104F18601204600F055F9A88C5A
:200C9C006189608400202077E083E0894118A181A88B218900F044F98046B988288C6A8CB1
:200CBC0001FB0808E88C8A4204BF3989884202BFA98CFB88994207D000090090AB8CA17968
:200CDC005208002000F034F9A87F3870688CB880A88CF880E88C3881204600F02DF90220EF
:200CFC00A87601E0B7F80480B4F81EC02268804ED2F80CE00CF1010000FB08F340F6C41010
:200D1C0000FB03F18E44C2F80CE03668DFF8E4E13678BEF80080784AB609032E11D1D67B4D
:200D3C00F60748BF4FF000080BD408F101081FFA88F6012E12BF668AB9F8066006F2DC56A3
:200D5C0000E0668A5E434FF4C87AB6FBFAF6761C6661AEF80080A3614FF0180894F806A0CC
:200D7C0084F820C008FB0AFADFF890C1DCF800E023680EF1080656F80A601E610EF108063C
:200D9C0094F806A008FB0AFACDF800A0D3F80CB0D4F814A0ABEB0A0ADDF800B046F80BA07A
:200DBC0094F806A008FB0AFA56F80A609E600EF10C06A37908FB03F30EF10C0EF65C06F0A1
:200DDC00F00646F002060EF803604FF0000ADCF800E0A6790EF1020308FB06F623F806A07A
:200DFC00474BA6791B68760103F1140AD4F814B05AF806A00AEB4B0A03F1140B4BF806A04C
:200E1C00AD7E022D0CD1A5796D0103F1140697F800A0765900FB0A6603F1140A4AF80560C3
:200E3C00BD88D27BA779D60739D508FB07F70EF10806F259A2F5A862F2510EF10807A27993
:200E5C0008FB02F2BA582768511A3961BA6003F11402A179490103F11407525802F5F66249
:200E7C007A5003F11401A27952018958C9F800106843244A156BA779296803F11C067F0183
:200E9C00401AA0F51670F0511F49A07903EB40100B78012B0EBF0122916A4A7811E003F180
:200EBC0014017F012A46C9594243A1F5E661A2F516729142DCD30821204600F041F8012013
:200EDC000FE0C272A179DCF80000104A08FB01F108442168486007201070204600F034F8F0
:200EFC000020BDE8F28F00BF684E0020784F0020084F00207E1E00205C4D0020804E00202A
:200F1C00844E002034280100734F00206F4F0020DFF800F035440110DFF800F0698600108F
:200F3C00DFF800F091860010DFF800F099860010DFF800F049C70010DFF800F0B9860010B4
:200F5C00DFF800F0A9850010DFF800F0498000102DE9F04180461F4800680D4641692720B0
:200F7C008847012404FA05F61B4DC5F80064C5F87C470327C5F8807718480460C5F8847705
:200F9C00D5F80404012818BFC5F80444C5F8FC6313480460C5F800801023AB60204610F09F
:200FBC00EBF8D5F88C076FF39D000028F6D0D5F88C17204611F0404F09D1C5F884770021CC
:200FDC00C5F8FC16D5F80024164218BF081CBDE8F081C046B00100100440024000E0484215
:040FFC000000484267
:20100000B41200001810000015AB0110FDB301106DC00110FDAE011099B5011000000000F7
:08102000000000002D0000009B
:20102800B01200003C100000B1C00110A9BF011067C0011069B80110000000000000000035
:041048003000000074
:20104C00B012000060100000BDC00110CDB30110D9BD01106DB3011000000000000000005B
:04106C00310000004F
:2010700000000000C00D002004000000000000000000000020000000E8C90110300000005D
:2010900028100000C80D00200400000000000000000000000C000000D8CA01101800000038
:2010B0004C100000D00D002004000000000000000000000024000000F0CA011018000000BC
:2010D00000000000D80D00200400000000000000000000001000000018CA01102C000000C8
:2010F00000100000E80D0020040000000000000000000000200000006CCA0110240000002C
:20111000FFFFFFFFF00D00200400000000000000000000002800000090CA011024000000EB
:20113000FFFFFFFFF80D00200400000000000000000000001400000008CB0110180000006A
:20115000FFFFFFFF000E002004000000000000000000000058000000B4C901103400000037
:20117000FFFFFFFF080E00200400000000000000000000001000000020CB01101800000005
:20119000FFFFFFFF100E00200400000000000000000000001C000000B4CA01102400000032
:2011B000FFFFFFFF180E00200400000000000000000000003800000044CA0110280000005A
:2011D000FFFFFFFF200E00200400000000000000000000005400000078C901103C000000CF
:0811F00001000000F0270100DE
:0411F80001000000F2
:0411FC0000000E00E1
:0412000000000F00DB
:0412040032000000B4
:0412080001000000E1
:04120C00080C0020AA
:0412100000020000D8
:0412140000000000D6
:0412180001C90110F7
:04121C0000000000CE
:0412200000000000CA
:0412240008000000BE
:0412280000002200A0
:04122C00780900201D
:0412300000000000BA
:0412340000000000B6
:0412380008000000AA
:04123C00300B002053
:0412400000000000AA
:0412440000000000A6
:04124800080000009A
:04124C00000000009E
:04125000000000009A
:041254000000000096
:041258000000000092
:04125C00010000008D
:04126000440A00201C
:041264000600000080
:041268000100000081
:04126C00E408002072
:04127000000000007A
:041274000000000076
:041278000002000070
:04127C00000000006E
:02128000290043
:02128200010069
:02128400250043
:02128600300036
:02128800310033
:02128A002D0035
:02128C0001005F
:01128E00015E
:081290000300000058270100D3
:0812980000000000000000004E
:0412A0000000010049
:0412A4000000030043
:0412A80013C401105A
:0412AC00F70901003D
:0412B000B812000070
:0412B400B81200006C
:0412B8000000000032
:0412BC00680D002099
:0412C000C90C010054
:0412C4002000000006
:0412C80050260100AB
:0412CC00A824010051
:0412D00029C101101F
:0412D400E3FC000037
:0412D8003B000100D6
:0412DC00A1C7011095
:0412E000A3C701108F
:0412E4000000000006
:0412E800AF2701002B
:0412EC00F4220100E7
:0412F0000C230100CA
:0412F400DC220100F7
:0212F8000200F2
:0212FA000900E9
:0212FC000100EF
:0212FE000000EE
:0113000001EB
:04130400FD0B0100DC
:04130800C1EF000031
:04130C006DFF000071
:041310000DF30000D9
:041314009BF000004A
:0413180089DD00006B
:04131C0025AD0000FB
:041320005B0F01005E
:04132400A5CF000051
:0413280015C70110D4
:04132C0025C70110C0
:2013300000B5ADF1240D029000208DF80C0045E202980490049840788DF814009DF81400EB
:2013500058BBA648A649022210230090102008F0BBFAA84803221023A1490090102008F0DF
:20137000B3FA0498A849C01C02680A6080888880A64801210170A648017850200CF0CEFD44
:201390000246A4480078A5490090A34801230190102008F099FA8DF814009DF8140010B1B5
:2013B0009A480821017001208DF80C0030E20298049004984078002830D10498C07890B11D
:2013D0009348017850200CF0A9FD02469448007892490090A94800230190102008F074FA55
:2013F000049948701AE089480078022816D087480078072812D085480078062803D1A548A9
:20141000007801280AD181480078032806D0A9480FF064F810B901200FF0C0FB04984078BA
:20143000002800F0F58179480821017001208DF80C00EDE1029804900498407800283CD17C
:2014500002988078032812D170480078062803D16E480721017033E0A948007818B16B4863
:20147000022101702CE069480321017028E0AC48008858B1A248007810B98648007880B147
:20149000A74801888B480CF09FFB0AE09C480078012803D19A490020087002E07D490020D5
:2014B00008705A480078072803D158480621017006E056480421017002E05448082101701D
:2014D00001208DF80C00A3E10298049004984078002842D10498B449001D02680A60808877
:2014F00088800498B149408908804848062101700498AF49C08908800498AE49008A0880BB
:201510000498AD49408A08800498B649C0780870B5480078012803D0B348007802280ED19F
:20153000B24910201F2208F0CFF9ADF81400BDF814004FF47A714143AD480CF045FB04986E
:201550004089AC490090042001900498049BC2781B1D102008F0B8F90DE004984078312858
:2015700006D167490020087028480421017002E026480821017001208DF80C0048E10298D7
:2015900004900498AC498288102008F09DF98648002106220AF0F0F8854900200880854911
:2015B000002008808449002008800498A349807908708F480FF0C0FAA1480FF0BDFA0120B5
:2015D0008DF80C0079494FF6FF7008803148007840B10E48032101701AE1C046901E0020D0
:2015F000B503010004988079082805D107480521017004E0A01E00200448042101700120DC
:201610000FF0CCFA04E1C046181F0020601E0020581E0020D40B0020700B00200945011086
:20163000D50B00200298049085480FF085FA04984078002840F0EC8004985D49C0880880F7
:2016500004985C490089088004985B494089088067480EF043FF002840F0DA8079480068CD
:20167000002800F0D580774852490068524A036809884F48128800889847C9E08F0B002098
:20169000029804900498704982880523102008F01BF9BDE0D10B00200298049004988088DE
:2016B000ADF8140050480078052805D100208DF81E0072E0181D002001208DF81E004C488C
:2016D0000FF03AFA48480078012803D046480078042839D15D4804990088C988884202DDC3
:2016F0005A48008801E00498C088ADF816005848049900880989884204DD5548008803E026
:20171000D00B002004980089ADF818005148049900884989884205DD4E48008804E0C04698
:20173000D20B002004984089ADF81A004A48049900888989884202DD4748008801E0049872
:201750008089ADF81C0028E027480078032803D025480078022810D13C480088ADF816000B
:201770003B480088ADF818003A480088ADF81A0039480088ADF81C000FE00498C088ADF886
:20179000160004980089ADF8180004984089ADF81A0004988089ADF81C003049102005AA5F
:2017B00008F092F834E0C0464C0E0020D60B0020D80B0020DA0B0020DC0B00200298807861
:2017D000052819DC05283FF47FAE00283FF4B0AD801E3FF4ECAD401E3FF42CAE401E3FF42C
:2017F00029AE15E0DE0B0020740D0020550801003C1D002041800000801F3FF4C0AE401E2D
:201810003FF410AF08383FF43BAF801E3FF444AF9DF80C0001280CD11148006848B11048EC
:201830000068006828B10E48006801680D480078884709B000BDC0465DD40000DF0B002075
:20185000601D0020E80B0020C1170110760D0020780D00207A0D00207C0D0020051601101B
:20187000E40B0020601E0020BB482DE9F84F0025BA4CB849056094F8E200002800F065814E
:20189000012800F02F81B64E02283CD0032840F05C8151F8250CD4F8B8100029A0F5C06011
:2018B000C4F8D400B8BF49420028B8BF4042814226DA4FF08057D7F8A4014568B4F8BC0003
:2018D00030214FF47F42082300903046A847D7F8A4014568B4F8C00004214FF4F80212235F
:2018F00000903046A847D7F8A401B4F8D070456820214FF440620A2330460097A847012561
:2019100084F8D8501CE151F8258C0FF037FB2F4600B901273946934F38680028FCD0B146A9
:20193000012609F10409D9F82CA03E6009B10FF02BFBCAF30720C4F8BC000FF01FFBAA46EA
:2019500000B9B2463B68002BFCD0D9F800B0BAF1000F3E6001D00FF017FBCBF38440C4F833
:20197000C0000FF00BFBAA4600B9B2463B68002BFCD0D9F81C90BAF1000F3E6001D00FF0B2
:2019900003FBC9F38120C4F8D000B8F5C061C4F8B81000F09C8094F8D80068B9C4F8D410CD
:2019B000D4F8C000C4F8C800D4F8BC70C4F8C470D4F8D030C4F8CC30D4F8D400D4F8BC3043
:2019D000002854BF02226FF0010204F1C8010F6800EB40008018421000EB927207EBA20069
:2019F0000860D4F8C810C4F8C43000291CDD1E293CDDD4F8CC0030B93429B4BF15391E21BB
:201A1000C4F8C81025E02A29BABFD4F8C8000B381E20C4F8C800D4F8C4003F28B4BF401CF2
:201A30003F20C4F8C4001FE0D4F8CC00032812D011F10B0FC6BFD4F8C8000B30301CC4F89B
:201A5000C800D4F8C4000028C4BF401E051CC4F8C450032508E011F1150FC6BFD4F8C800D5
:201A70001530301CC4F8C800C4F8CC504FF08057D7F8A401B4F8C43030214FF47F4245683D
:201A9000374800930823A847D7F8A40104214FF400321123456832480096A847B4F8C86048
:201AB000D7F8A40104214FF4F802122345682C480096A847D7F8A40120214FF440620A239E
:201AD000B4F8CC60456826480096A84701E084F8D85040F2FF50404502D8801C40452FD2F7
:201AF000082030E051F8251C1F4F4BF2F5204843060A3868C0F3814001280CD11B480068D4
:201B1000006880470CF0BCFE0FF044FA3111C010484306EBE03694F8E50030B914480068D1
:201B300020F07F403618760801E084F8E5501148310C0660012741600F4D8760287808B9FF
:201B50000B2000E0052084F8E40003F03DFEBDE8F88FC0462D400C402C500C40C00500201F
:201B700000A00C4000800C40B43F0050EC010010102009403C600C400D2601002DE9F04F73
:201B900009AFADF13C0D08900A92388809911E46ADF81800101C08BF002000F06C8101787E
:201BB00000274FF0010B401C4FF0FF39B846DA460A9058E1252940F04D810178401C0A9024
:201BD0002D2918BFADF8068004D10178ADF806B0401C0A9030291CBF4246434604D101786B
:201BF000401C5A465B460A902A29CDF800804D4617D1049330680A9BCDF80890C01C20F06E
:201C10000300001D306050F8044C1978002C009403F101000A9018D5ADF806A0644200941A
:201C300013E044460AE0600000EBC4004018A0F130040A9801780094401C0A90302901DB27
:201C50003A29F0DBCDF8089004932E2929D10178401C2A290A9011D13168CDF80880C91C92
:201C700021F00301091D316051F8045C002D48BF454601782B46401C0A9011E0454643463B
:201C90000AE0680000EBC5004018A0F130050A9801782B46401C0A90302901DB3A29F0DB2F
:201CB00002930AB1224604926C2904D04C2918BFADF8048004D10178ADF804A0401C0A905B
:201CD0000BA8CDF80C800FAB07906429059379D0692977D0BDF818C0752965D0782961D026
:201CF0006F295DD0702946D0632936D073291AD00A98401E0A900998012812D961490C68DB
:201D1000B5F1FF3F03D0A84288BF6D1C00D8099D029508A80AA932466B46A0473F180398C8
:201D300065E0454617E03068C01C20F00300001D306050F8040CBCF1010F014608B94FA08C
:201D5000014607910EF048FF0390B5F1FF3F4FD0A8424DD9039528464AE03068C01C20F0F5
:201D70000300001D306010F8040C8DF82C005D46039558463CE0082035680490E81C20F078
:201D90000300001D306050F8041C082210230FA80AF008F9401E079040210170079823E0A3
:201DB000082302E0102300E00A233068C01C20F00300001D306050F8041CAA42BCBF2A1C7D
:201DD00004920DE03068C01C20F00300001D306050F8041CAA42BCBF2A1C04926FF0090326
:201DF0000FA80AF0DFF807900599081A0390009C241ABDF8065000945DB906E008A82021FB
:201E100009AA0DF012FE7F1C009C641E0094F5D50398401EB0F1FF3F03900FD1BDF80600D5
:201E300001281CD10098401E009018D408A8202109AA0DF0FAFD00987F1CF4E7079801784C
:201E500009AA08A80DF0F1FD0798401C079003987F1CDEE708A809AA0DF0E7FD7F1C0A9816
:201E70000178401C0A9000297FF4A4AE089808B14146017038460FB0BDE8F08F286E756CCC
:201E90006C2900C0FC2701002DE9F84F0C46E00788B00BD50EF08AFF28B100218160AC48B5
:201EB000006800B1804784F001004EE1A00710D500200690002104900023029000900591BC
:201ED0000393019101223C200FF098FC84F002003BE11D2560079F4E9F4F40F18A80002047
:201EF000079083469D498878FF2804BF00200EF09DF9386890F8A0000EF028FE804638689C
:201F1000C07A98F82691022818BF032808F5907A06D106F10D000FF06DFC08B906F1070BF0
:201F3000514648460FF062FC88B33868807A002818BF012804D1314650460FF053FC04E0FE
:201F50005246494630460FF049FCFF2834D005FB00F906EB090506225146E81D0EF0BAFCF5
:201F700016F8090040F00209E81D079006223868817E01F0010188F8261105F1010A386851
:201F900000F1140108F590700EF0A4FC14E0514648460FF01FFC78B15246494630460FF098
:201FB0001DFCFF2808D006F10D01454348190FF021FC08B149F0020908F12C004B460178C3
:201FD0000691418909090591B8F82220079904920122C088029140080390CDF804B0CDF8A9
:201FF00000A0002098F806100FF008FC84F00400ABE0200610D500200690002104900023CC
:202010000290009005910393019101223B200FF0F5FB84F0800098E0E0043BD5F11D06F1FE
:202030000D000FF0D3FB38684179012923D1017A012918BF04291ED1C17A022918BF03293D
:2020500019D1817E00F1140230460FF0C7FBFF2811D04543354405F10D000FF0CBFB50B96F
:20207000E91D05F10D000FF0B1FB38680622E91D14300EF02FFC3A493A484A6800784FF4EF
:2020900080510BF055FE10B18E2009F0B7FA84F480505AE0A00505D50EF070FF32490120EE
:2020B0000860FEE7610504D508F077F984F480604BE0600405D5812009F0A0FA84F48040EF
:2020D00043E0A00440D5294D286810B100200EF0ADF8274E4FF0FF3028600FF073FB316819
:2020F000244D51F8202F684690472348416A826A036B0091019221490291C16A0A68016AA9
:20211000ADF8101003921978002904BF5868002805D19A68002A04BFD868002806D0297054
:20213000596869609868A860D868E86029463568134A2E6813486B46B0471349086003F0BC
:2021500091FD84F4005000E0002009B0BDE8F08F204F0020AC450020104F0020684E002047
:20217000784E00206E4F0020FC002043044F0020F04E002068450020B0090020AD0D0100FB
:202190002C4D0020581A0020EC4E002000B5ADF1240DA348A34906F0E1FFA4480EF0B8FCDB
:2021B000A14908600CF050F80AF004FC0020A1490090012001909E4841F2883200230AF043
:2021D000B9FC4FF0804000210AF074FD9A4908609A491F220623102007F076FB98480DF0A2
:2021F0004DFC01208DF822000020ADF8180000208DF823005020ADF81A004FF44870ADF84A
:202210001C000020ADF81E004FF47A70ADF8200001210DF1220240F20530FEF7FBF940F2F7
:202230000630022106AAFEF7F5F9864A4FF442701921FEF7EFF9844A40F207300721FEF772
:20225000E9F94FF4447001210DF12302FEF7E2F940F2113002210DF11A02FEF7DBF940F2D5
:202270001230022107AAFEF7D5F940F2133002210DF11E02FEF7CEF94FF44570022108AA36
:20229000FEF7C8F971480022152371490090102007F01AFBA020ADF818006849BDF81830B4
:2022B0000622102007F010FB6449BDF818301020072207F009FB6149BDF8183010200822B5
:2022D00007F002FB5D49BDF818301020092207F0FBFA01208DF8180001208DF81900002073
:2022F0008DF81A0001208DF81B0000208DF81C0006A84FF48062012356490090102007F060
:20231000E3FA0DF1190040F20242012351490090102007F0D9FA0DF11A0040F20342012348
:202330004C490090102007F0CFFA0DF11B0040F20642012347490090102007F0C5FA07A80C
:202350004FF48362012343490090102007F0BCFA414910204FF0FF3207F0B6FA3F4910209F
:202370004FF0FF3207F0B0FA0DF074FB2C4800780CF0F8FF3A480DF069FE3A480088ADF85C
:202390000800022102AA002006F012FD36480088ADF80C00022103AA012006F009FD334812
:2023B0000088ADF81000022104AA022006F000FD05A80021022209F0DFF90320022105AA32
:2023D00006F0F6FC2A492B4A102007F07DFA1448017850200BF0A2FD27490246102007F0C1
:2023F00073FA0F48017850200BF098FD23490246102007F069FA2249102007F065FA0E480B
:2024100000680021002202A30DF0E5FA09B000BD424C45205065726970686572616C00C04B
:20243000F01E0020F41E0020F81E0020CC1E0020F41C0020F90A0100B80D00203DF20000A4
:20245000600E0020EC0B0020380E0020200C00206DB000005935000029FE0000FD01010044
:20247000280E0020C52601006E270100AD270100F1030100B00D0020518801103181011020
:20249000C5AB00102DE9F84FB34D686884B0019020B905B0BDE8F04F0FF090B90178DFF8B0
:2024B000BC82AF4EDFF8BC92DFF8BCA201291CBF0229042946F2A81741F64C5B05D0402907
:2024D00018BF802900F097803DE10EF0B1FD0028FAD00198007804F039FC0090446814B966
:2024F00000200DF0A3FE9AF8010000285DD001F071FC0EF02BFB02900168009801914F68C8
:2025100009F02AFE022827D000990A78012ADBD1964B19680A7A19F80230337018B90FF0DB
:2025300049F95844A0602069C17E01F0EF01C1762069C17E41F08001C1762069C17E01F063
:20255000F00141F00201C1768948B96841182069C161012100989DE0019886490278802A56
:2025700012D1082333700878012803D09AF80110012903DD39690120C87210E0D8F828008C
:202590003A690178D1720AE0072030700978386901290EBF0122D8F828104A78C272029847
:2025B000817901988AF80210C8E0009800288BD00199009A0078914205D101281CBF0020A8
:2025D0000DF034FE15E0012840F0BD80674801680A7A19F8020030700FF0ECF83918A068A6
:2025F0000FF0E4F818B90FF0E5F85844A0600120A8700098A2E09AF8010000287AD001F05E
:20261000E9FB0EF0A3FA04462068029047689AF802000EF09BFA03900EF010FD10F0070F3D
:202630003DD0A87804F092FB0190416801980091029909F091FD022831D001990A78012AE4
:202650002AD14A4B19680A7A19F80230337028B90FF0B0F883440098C0F808B0009908698E
:20267000C17E01F0EF01C17600980069C17E41F08001C17600980069C17E01F0F00141F077
:202690000201C176009AB968394841181069C16101210198A97051E000200DF0C7FD03983F
:2026B000A04225D0029833490278802A12D1082333700878012803D09AF80110012903DD1F
:2026D00039690120C87210E0D8F828003A690178D1720AE0072030700978386901290EBFDC
:2026F0000122D8F828104A78C272A0798AF80200029823E00EF0A2FC10F0070F29D0A878A4
:2027100004F024FB04462078D4F80480012820D116490A68107A19F8001031700FF04AF8EC
:202730003918D8F808000FF041F820B90FF042F85844C8F808000120A870204605B0BDE8B9
:20275000F04F06F053BC05B0BDE8F04F00200DF06DBD05B0BDE8F08FD81E002034280100F9
:202770006F4F0020289A0110684E0020104F0020F0D8FFFF734F00200EB50091ADF804009E
:2027900000208DF80600A8E07948009900780870EAE000987749102207F09CFEE4E000986B
:2027B0007549102207F096FEDEE07448009900680860D9E0724900980A68026089888180B9
:2027D000D2E07048009900780870CDE06E48009900780870C8E06D48009900880880C3E061
:2027F0006B4900980A786B4907F074FEBCE06A4900980A78694907F06DFEB5E06848009983
:2028100000780870B0E06748009900780870ABE0654900980A68026089888180A4E063480A
:202830000099007808709FE061480099007808709AE0604800990088088095E05E480099CF
:202850000078088090E05D480099008808808BE05B4800990088088086E05A4800990088CA
:20287000088081E058480099008808807CE0574900980A6802608988818075E05448009912
:202890000088088070E053480099008808806BE0514800990088088066E050480099007808
:2028B000087061E04E480099007808705CE04D4800990078087057E0BDF804002A2808DAB2
:2028D0004949BDF80420102006F0FEFF009908804AE002208DF8060046E0BDF80400A0F5EE
:2028F00040701D28E8D802A151F820008746C04699270000A3270000AF270000BB270000F2
:20291000C5270000D3270000E7270000F1270000FF2700000D2800001728000021280000B8
:202930002F2800003928000043280000C92800004D28000057280000612800006B28000063
:20295000752800007F2800008D28000097280000A1280000C9280000B5280000DD27000014
:20297000AB280000BF2800009DF806000EBDC046611E0020901E0020A01E0020641E002034
:20299000181F0020D00B0020D10B0020D20B0020D40B0020700B0020D50B00208F0B002088
:2029B000681E0020691E0020460E00206A1E00206B1E0020D60B0020740D0020760D0020B0
:2029D000780D00207A0D00207C0D00204C0E0020D80B0020DA0B0020DC0B0020DE0B002060
:2029F000601E0020DF0B00205508010010B5ADF1280D039102900398C00B43D30EF0E3FBAB
:202A100007908548006804900498002832D00498283090E80C000A214FF0E04011401840D5
:202A300000D1002926D10498283003C88DE8030004989DE8180000F1280106C92830A243FF
:202A5000994380E8060007980EF0ACFE0498806898B19DE80300002900D100280DD09DE8FC
:202A70000C0004988468049804990069B1F93C10A04702E007980EF095FE039820F48040B2
:202A90000390C1E00398800F73D30EF09CFB07906248006801680420884700283ED0029818
:202AB000007C00283AD05E480068002836D00298C06809905A48006805905A480068006BAD
:202AD0008047069005980699884203D205990698401A02E005990698401A0299C860029843
:202AF000C168090BC16002980999C068884206D20298C1680998401802994008C860029801
:202B1000C06840F6C411814204D30298C068B0F5FA7F03D2029840F6C411C16007980EF0C0
:202B300041FE0AF033FDA8B1029880690990099C02986FF4807100224FF00073A0473A48D7
:202B50000EF0C4F910B109F0DDFB03E0039840F002000390029840690890089C029800219B
:202B700000224FF08063A047039820F0005003904AE0039880080BD305F022FF2B480DF0DB
:202B900053FD002840D0039820F0020003903BE00398000938D30CF083F800282ED0244989
:202BB0000320087023480EF008FB04F0BDFC022000210BF0F7F902200CF0B6FA112006F02E
:202BD000B7F91D48007820B91C48006838300EF008FB1B48007810B90E2006F0A9F919487F
:202BF000007828B117490020087005200CF09CFA1648154908600E490020087009F082FB3C
:202C1000039820F008000390039818B1039910480EF0EFFA0AB010BDDC1D0020E00100108E
:202C3000741E00208C010010C81D0020D01D0020801E0020AC1C00207C1E0020701E002015
:202C50001E2701008D1E0020841E0020717A0000201C00202DE9F04F8246DAF800600C46A9
:202C70005FEA0208ADF11C0D14BF00214FF0FF3106F1480083460EF00DF8002818BF0B2092
:202C900040F00D8100258848F460B8F1010F057007D0657002200CF0ADFB06200CF0AAFBB6
:202CB00001E0012060702078012840F2AB80801E012868D9801E012833D9801E012800F280
:202CD000DF800EF080FA06904FF0805000F5EE77D0F8DC01A378466A0093217828460629D5
:202CF00008BF0120019001200290A068228AE1686368B047814606980EF054FDB9F1000F6C
:202D100040F0C080B8F1000F02D00DF0A7FD02E050460CF0BAFC002800F0A4803868806A18
:202D30002AE00EF050FA06904FF0805000F5EE77D0F8DC01012306680093A168A27860687D
:202D50002478AC46042C08BF9C466346B047814606980EF027FDB9F1000F40F09380B8F130
:202D7000000F02D00DF07AFD02E050460CF08DFC002877D03868406880474A49C1F8B05126
:202D90000D6081467EE00EF01EFA06904FF0805000F5EE76D0F8DC01E38A87690093E068A0
:202DB0000190208B0290A0780390207D04900121059122782846022A08BF081CE17862685F
:202DD000A368B847814606980EF0ECFCB9F1000F58D1B8F1000F02D00DF040FD02E0504670
:202DF0000CF053FC00283DD03068006A80475FEA000947D13068C569A168E28A2369E078F1
:202E1000A847BEE70EF0DFF906904FF0805000F5EE76D0F8DC01E38AC7680093E06801908D
:202E3000208B0290A0780390207D2946049001200590257805B9014608466268A368E17826
:202E5000B847814606980EF0ADFCB9F1000F19D1B8F1000F02D00DF001FD02E050460CF0BB
:202E700014FC08B914201AE03068406980475FEA000907D1306802692169E078904780E7EE
:202E90004FF0FF39B8F1010F05D002200CF04CF906200CF049F958460EF0A3F9484607B0D9
:202EB000BDE8F08F50450240581F002010B50B7884074CBF43F0020303F0FD0304064CBF52
:202ED00043F0800303F07F0304074CBF43F0080303F0F70384064CBF43F0200303F0DF03B6
:202EF00010F0AA0F0B7004D0107840F00C00107010BD18B9117801F0F301117010BD2DE906
:202F1000F8430D4600272878022814461E4667D1696808784978DDF8208000EB012080B267
:202F30005FEA08011CBFB0F5285F0B205BD14FF42851401A08D0401E21D0401E2FD0401ED9
:202F500025D0401E31D04BE0DDF82490E8680EF05EF980B2A0EB08024A45BCBFA0EB080050
:202F70001FFA80F909EB0800162806DAA6F800904A46E86800EB08010DE00D2732E0E86810
:202F90000088022131802070000A60702AE0062030800622E96820460DF09CFC22E00120E4
:202FB0003080E868017821701CE0E868B0B108213180018821700188090A61704188A1700F
:202FD0004188090AE170818821718188090A6171C188A171C088000AE07103E0378001E0B2
:202FF000378001273846BDE8F2832DE9FC470F4600243978022970D1804678680A9E017894
:20301000DFF8E0A09146427801EB022189B24FF42850091A1D4606D0491E29D0491E4ED072
:20303000491E39D059E0F8680EF0F1F880B2B04204D3A819162803DB0D244FE007244DE000
:20305000FB682A46494698190DF044FCAD19F868ADB2C5F11602002140190EF0D4F8DAF8A7
:20307000000000281CBF0268002A37D0002123E08EBB022DE0D199F8000099F80110FA68C0
:2030900000EB01201080DAF8000000281CBF0268002A23D001210FE0EEB9062DCCD1F86840
:2030B000062249460DF016FCDAF8000000281CBF0268002A12D00321404690470EE056B971
:2030D000012DB9D199F80000002813BF0128F9680870802402E00B2400E001242046BDE8D6
:2030F000F6870000341F00200EB58DF801108DF800008848006830B94FF00040002109F038
:20311000D9FD84490860834800680021002256A30CF061FC97E07F4800680021002256A3EA
:203130000CF059FC7B4800680221002255A30CF052FC97E09DF8010001280ED17548006842
:20315000002100224CA30CF046FC724800680221002251A30CF03FFC84E06E4800680021BA
:20317000002245A30CF037FC6A480068022100224FA30CF030FC75E06648006800210022DF
:203190003DA30CF028FC63480068022100224DA30CF021FC01208DF804009DF80400002853
:2031B00060D09DF804000028FBD15BE0594800680021002230A30CF00EFC564800680221B9
:2031D000002244A30CF007FC01208DF804009DF80400002846D09DF804000028FBD141E0A8
:2031F0004C4800680021002223A30CF0F4FB49480068022100223CA30CF0EDFB01208DF828
:2032100004009DF8040000282CD09DF804000028FBD127E03F4800680021002216A30CF062
:20323000DAFB3C4800680221002234A30CF0D3FB01208DF804009DF8040098B19DF80400B2
:203250000028FBD10EE09DF80000801E3FF472AF801E3FF460AF401E8ED0401EA6D0401E27
:20327000BED0D7E70EBDC0463E3E3E535441434B20415353455254002A2A2A4552524F52F7
:203290002A2A2A003E3E204F5554204F46204D454D4F52592100C0463E3E20494E54455219
:2032B0004E414C204657204552524F522100C0463E3E20494E5445524E414C204552524F44
:2032D000522100C03E3E204943414C4C2041424F525421003E3E204943414C4C2054494DE6
:2032F000454F55542100C0463E3E2057524F4E47204150492043414C4C2100C03E3E20443A
:20331000454641554C54205350494E4C4F434B2100C046C0B80D0020FEB57748774A0078E2
:20333000774C784B78490D2840D8DFE800F0E307070707DBDB5EDB9A9AB8B8BF146041F23A
:20335000044572494C88AC421FBF4E8BAE424E8EAE4203D11D806E4810607AE0002C6D4D4D
:203370001C804FF4A05639D0641E3CD0641E35D040F2FE37E41B1AD0241F012C1DD94FF451
:203390007F77E41B1BD04FF44067E41B0FD0A41E012C0CD9241F0AD0641E012C0DD940F2BD
:2033B000F937E41B012C19D9241F08D09AE0022814BF1E80584D15604BE0584DFBE7584813
:2033D00003681C7A012C05D141F20240488048834886F0E74E804E834E86ECE700200CF0CA
:2033F00025FF832082E08F2080E04E488178FF2954D0182041434C48146040F20445006803
:20341000841C645A1C80641B012C484B72D94FF47F75641B0FD04FF44065641B032C84BFAA
:20343000641F012C0BD9A41E012C63D940F2FD35641B08D103E0801C41F201444452136001
:2034500005F07EF905E000200CF0F0FE85200EF0A5F903B0BDE8F04035480078012105F02C
:2034700095B840F204424888188090421CBF41F2084290423ED041F60402904211D12D4C9B
:203490002D4A25682D4800680023CDE9002355F8086F2B4B0222B0472A490880F7BD48886B
:2034B000188000200CF0C2FE85201FE04888188002280DD940F20442801A1BD040F6FC72CB
:2034D000801A05D0083815D04FF47F72801AE8D1887B801CC2B2B52AA8BF662088730020C7
:2034F0004880F7BD00200CF0A1FE8420BDE8FE400EF054B9F7BD00BF6F4F0020204F002013
:20351000A7110100504F0020CC4C0020204A00204DC40000615A0110B1540110755B01108D
:20353000104F0020684E0020804E0020313901106E4F0020F04E002002000080EC4E0020A6
:20355000D5F10000424F00207CB5894D144602460026A2F58062182A1AD8DFE812F0FF00A0
:20357000F900F200EA00E300DD00D600D1001900C600BF00B800AF00A400190019008000A4
:203590006F00680054004C00420039002C0024002A2880F28680022940F0838021880BF00D
:2035B00045FE0646E2E0012940F0DF80002C00F0DC801135A7E0102940F0D780002C00F0D0
:2035D000D48028465030102221460DF083F9CDE0012940F0CA80002C00F0C78029468D1DBA
:2035F00091E0262940F0C180002C00F0BE8005F160002622E8E7012940F0B780002C00F016
:20361000B4806D1D7FE0602900D13CB9012940F0AC80002C00F0A9800D3574E005F1860051
:20363000214660220DF056F9012068739EE0012940F09B8020780EF0ADF897E0012940F04A
:2036500094802078022800F390800C3528702078022814BF301C01200EF098F886E0072982
:2036700040F08380611C684606220CF099FF20786946324606F024FA04460A2C11DA0EF0E4
:2036900081F840B9204603F087FC50200DF000F809F08AFD6AE02A46012002F12C0528556B
:2036B00064E0022662E001295FD1A87B21780028A9735BD12078012858D1E9E7012954D1BD
:2036D0002478072C51DB102C4FDC0B3537E001294BD124780A2C48DA093530E0012944D15A
:2036F0002478022C41DA083529E000293DD10EF049F810B90DF061F9C7E701240F351EE0E4
:20371000012932D10A35247819E001292DD12478022C2ADAED1D12E0102926D12B4603F111
:20373000400050E7012920D12478022C1DDA2D1D05E0012919D12478042C16DCED1C2C7080
:2037500014E0012911D12478022C0EDAAD1CF6E702290AD120881435288007E0012904D17C
:203770002478022CD8BF6D1CE9DD182630467CBD080200202DE9FE4F05467B480024006875
:203790000094C00905D37948007810B920200BF067FD012D40F0E280DFF80092D9F8DC006D
:2037B000012840F0D8800220C9F8DC000CF09EFC01200BF055FD5FEA000805D00120C9F87D
:2037D000DC000CF0A3FCCBE00DF00FFDA34602906748684DC0F800B0A86A016801208847FC
:2037F000012804D1584608F0EDFC012000906248624FC0F800B0386811200DF0D7FB00B177
:20381000012410200DF0D2FB08B144F002040F200DF0CCFB08B144F004040B200DF0C6FBB5
:2038300020B12868564E016B308888470A200DF0BDFB20B12868534E016B30888847524812
:20385000012606602868816944F0200088474F4806600DF0A5FB00F001010191400814D2E2
:20387000286A81684A4888478246BAF1040FF7D0BAF1010F04D1286A4268454803219047BB
:203890004449086820F003000860584600F09CF92B683868986B8047019801280CD0BAF137
:2038B000010F04D1286A42683948314690473949086840F0030008602F4806602868416964
:2038D000204688470B200DF071FB20B128682C4BC16A188888470A200DF068FB20B12868B2
:2038F000284BC16A18888847274806600322C9F8DC20264BC3F800B02868416B20468847A7
:203910000128F9D1386804200BF0AAFC0446184806603868144800688009FBD300980128B3
:2039300002D1304608F04EFC0DF02EFB08200BF097FC07460298C9F8DC600DF01FFF1648B3
:20395000008808F017FA0CF0E1FB57EA040018BF4FF0FF3804E06FF0040801E06FF00108C4
:203970004046BDE8FE8FC04614100940A80600200C400940B8010010000222432C200940E4
:20399000BE220100BA2201002820086080010443004003402422084008260100C0050020BC
:2039B00000B5ADF12C0D8DF80400B9E04FF4417002A9FEF7E1FE9DF808008DF810009DF80F
:2039D00009008DF811009DF80A008DF8120000208DF8140000208DF813009DF80D008DF86A
:2039F00017009DF80C008DF816009DF80B008DF81500082104AA002000F0FCFD02A807F0A9
:203A10005DFA03466D480068012100220BF0E3FF6A480068022100224CA30BF0DCFF93E021
:203A300066480068022100224BA30BF0D4FF8BE000208DF81C006249102005F045FF8DF89A
:203A50001C0060499DF81C2002AB1020521E05F03BFFA8B99DF81C00009058480068022177
:203A7000002240A30BF0B7FF0DF10A0007F026FA034652480068032100220BF0ACFF63E0E7
:203A900040F2153008A9FEF777FE4C4800680221002238A30BF09FFF08A807F00FFA0346D6
:203AB00046480068032100220BF095FF4CE0434800680221002232A30BF08DFF44E0142013
:203AD0000BF042F93D4800680221002232A30BF082FF3A480068032105220DF03DFA33E0A1
:203AF00014200BF031F935480068022100222EA30BF071FF31480068032105220DF02CFAA8
:203B100022E02E480068022100222AA30BF063FF1AE02A480068022100220DF01DFA13E026
:203B30009DF80400401E3FF441AF401E3FF478AF801EC4D0401ED3D0401E3FF479AF401E59
:203B5000B5D0401EDDD0E4E70BB000BD496E697469616C697A6564004164766572746973CA
:203B7000696E67004E756D20436F6E6E733A20256400C046436F6E6E656374656400C04624
:203B9000436F6E6E6563746564204164766572746973696E6700C046446973636F6E6E65A9
:203BB0006374656400C046C054696D6564204F757400C0464572726F7200C046B80D002049
:203BD000F17F0110097F01102DE9F84FDFF8F0B10746ABF13500DFF8DC910068800880F024
:203BF000D880704800680068804779490831D1F8008000254FEA28725FEA985102F10102AA
:203C10000AD2C0F13E0110F10A0F4FEAE101D8BF08218A42B8BF0A1C634BD3F87C11C1F3B0
:203C300004611629A8BF20391B68C3F30443162BA8BF203B9A465118162905DA11F10A0F0B
:203C5000B8BF6FF0090100E01521584B584E01F01F0242F4F8521A80326812F0030F18BF64
:203C70000125D20828BF45F002050FB145F004054A4692F90730C31A052B04DA9379AB42DD
:203C900008BF918865D0DFF830E10F28A0F10F0C25DB0CEB0013A3F1F00C4FEA2C26072EDA
:203CB00088BF07263446062C88BF06245EF82470042303EB84037446E358DB1B03F0FF04FC
:203CD000EF0824BFC3F307273C44AF0824BFC3F307473C446F0828BF04EB136401E00024AF
:203CF00026465EF826E0EF080EF0FF0324BFCEF307273B44AF0824BFCEF307473B446F0805
:203D100028BF03EB1E63A4B2ACEB0626BAEB010104FB06F404F1800403EB1423D8BF01212D
:203D3000342408F0FF074C437C43B4FBF3F14FF6FF738B4238BF191C802889B2918005DAB9
:203D500010F1800FB8BF6FF07F0000E07F20D07195711A4800681F2910604FF0000008D30C
:203D700040F2FF128A4206D24908401C8A42FBD301E01F219180134F0F39090940EAC1002C
:203D900047EA0001CBF8FB1F0026CBF8FF6FBDE8F88F0D490D4F4A4608200F60921D107079
:203DB000BDE8F88FEC0100103C1100506E62084024220840201F00209C13005008200940B8
:203DD0003500094000E7A48030100940FDFDA400AC3F00502DE9FE4FDFF8F48198F8011098
:203DF00011B900200CF022FA0DF0E4FC07464FF0000907F6C4170026764D774C11E0304654
:203E10000CF0A4FE417951B12968827901F8092009F101015FFA81F939460DF0ABFC761C06
:203E3000F6B220788642EADB98F80100814505D000200CF0FBF982200DF0B0FC98F801008D
:203E5000012840F0A680002601E0761CF6B22078864280F2988030460CF078FE0746787982
:203E70000028F2D02868B979027891421CBF00200CF0DCF9B87984E02868C05D0CF066FECB
:203E900000684268DAF808109068814204BF34467F1C00F08C808EE0296808780123F6B23C
:203EB0004FF4C07210E0D8F8047007F5AD7CCF5C02FB07F43CF804E002FB00F43CF8044080
:203ED000A64538BF38465B1CB342ECDB06464FF6FF700DF04BFC8246F0B20CF037FE4FEA27
:203EF0005A010068446840F6C410414301F5A06000270091019015E0F0B20CF027FE016855
:203F10000A78802A03D1DBF81030009A5A610978402906D131498079096801EB40110198AE
:203F3000C8617F1C4F4550DA2868C05D0246F1B29142F6D04FF4C071D8F804304A43991808
:203F500003F5AD73C9899A5A4B08934202D2891A8945E6DA0CF0FAFD0068D0F804B0A268E5
:203F7000DBF808104FEA5A0040F6C413A1F6C41103FB00200DF01AFC0028BDD02868C05DA7
:203F9000C0B2BDE8FE8F00200CF050F982200DF005FC98F8011028680DF0E4FB2868007853
:203FB0000CF0D4FD00240168D1F804A00127661C4F45FFF661AFE4B2002C1CBFF0B2002880
:203FD0007FF46AAF2868067881E73046D8E700BF684E0020004F00207B4F0020844E0020BA
:203FF00000B5ADF12C0D0493039202910190019878B1029868B1039858B1049848B10C9883
:2040100038B10D9828B10D98006A10B10D98406A48B90D9820B10D986FF0010180F82C10D9
:204030006FF00100D9E00D98816A6D4800680DF095FB0D9981F82C000D9890F92C0038B987
:204050000D986FF0020180F82C106FF00200C4E00D980D9A016A0D985288007800EB800077
:204070001218143290B288475E49086058B95C4800680DF06FFB0D984FF0FF3180F82C1054
:204090004FF0FF30A9E00D98418856480068401805900D9805990078001D401806900D984D
:2040B00006990078001D401807900D9807990078001D401808900D9808990078001D4018D0
:2040D00009900D9808F0E6FB0D980078C01C411000EB91700599801008600D980078C01CF4
:2040F000411000EB91700699801008600D980078C01C411000EB91700799801008600D9869
:204110000078C01C411000EB91700899801008600D980078C01C411000EB917009998010FD
:2041300008600D9A059801991278001D06F0D2F90D9A069802991278001D06F0CBF90D9AD9
:20415000079803991278001D06F0C4F90D980699079A03780D9800F047F88DF828009DF943
:204170002800B8B909980090089B0699079A05980DF0ECFA8DF828000D9A089904981278E7
:20419000091D06F0A7F90D98099902780C98091D06F0A0F90D990D984A88007800EB800039
:2041B000121810480068002107F0E6FA0D98416A0C48006888470A4800680DF0CBFA9DF821
:2041D0002800992802D100208DF828009DF928000D9981F82C009DF928000BB000BDC04601
:2041F00004110020884F002000B5ADF1540D0393029201910090039880080590039902200D
:2042100000EB910006906F48006807900699079800EB810008900898069900EB8100099040
:204230000998069900EB81000A900A98069900EB81000D900D98069900EB81000E900E98EA
:20425000069900EB81000F900F98069900EB810010901098069900EB8100119011980699B6
:2042700000EB810012901298069900EB810013901398069900EB810014901498069900EB38
:2042900081000B900B98069900EB81000C90069882014C480068002107F06EFA4A494B4AE3
:2042B000079809689047059003980599B1EB900F02D06FF0010082E0454A079805999047C7
:2042D0000198039909F0EFFB08B1012077E00298039909F0E8FB08B1022070E03D4A089821
:2042F000019990473B4A0998029990470098394A81680A989047384B0B9808990A9A9847DE
:2043100004900498012804D105980B9951F8200008B1032053E0069882000B98002107F0CB
:204330002BFA2D4B0B9809990A9A984704900498012804D105980B9951F8200008B1042053
:204350003DE0274B0D980899244A9847244B0E980999224A9847224B11980D990D9A9847E7
:204370001F4B129811990D9A98471D4B13980D991C4A98470B980021282207F0FDF91A4B8B
:204390000B981299139A9847174B0B980B99174A9847134B14980E990E9A984706988200F2
:2043B0000C98002107F0E8F99DF8142014980B9909F02AFD012801D0052000E0002015B033
:2043D00000BDC046884F00208C4F002031DB001021DC0010B9DB0010C9DE0010100B002059
:2043F000F9E0001060250100C9E60010802501002DE9FE4F0E468246307AC10693461C46AE
:204410004FF000090CD558460DF09CF9030000F0E9800A223146504698475FEA00094DD14F
:204430003078DDF838800D9D0C9F02281AD170680178407801EB002189B24FF42052891A24
:20445000012910D9891E3AD0491E14D0FD397BD0491E00F08280491E6ED0491E74D0491EAC
:2044700000F09680ACE0002D2AD1F068017839800278416888E0002D22D101203880F0680C
:204490000178217000217089401C80B20DF056F9398860B10278921C511839804189617057
:2044B0004189090AA17002784168E01C6DE0091D398004220021601C0CF0A5FE94E0002DB0
:2044D00067D1F0680588042139802570290A617028460DF102010DF031F95FEA000821D060
:2044F000D8F80C50BDF802204FF6FF766B4631460DF020F950B998F80030D8F804203C4870
:2045100002210DF013F908B9ADF80060287802280AD169680222201D0CF0DCF93888801C95
:20453000388001E0ADF80050BDF80000A070BDF80000000AE07057E0002D2AD1F0680168E9
:2045500050460BF01DFD02E01DBBF0680088022139802070000A607046E0F0680CF057FEF1
:2045700080B2A842B8BF4FF007093DDB854208BF002205D008EB05028242B4BF4246421B96
:204590003A8092B2F068411920460CF0A3F92BE015B14FF00B0927E0F06807213980017880
:2045B0002170417861704188A1704188090AE17001792171C1886171C088000AA07113E04C
:2045D00058460DF0AFF85FEA00090BD00F980290CDF8048000953B46224631465046C84740
:2045F000814601E04FF00E094846BDE8FE8F00BF2A2801000EB500928DF805108DF8040063
:2046100000208DF80600BBE09DF80500082806D100999DF80520694805F05CFFCAE018206D
:204630008DF80600C6E09DF8050014280BDC64480021152207F0A0F800999DF805206048EE
:2046500005F048FFB6E018208DF80600B2E09DF8050014280BDC5B480021152207F08CF8F0
:2046700000999DF80520574805F034FFA2E018208DF806009EE09DF8050014280BDC5248F6
:204690000021152207F078F800999DF805204E4805F020FF8EE018208DF806008AE09DF81E
:2046B000050014280BDC49480021152207F064F800999DF80520454805F00CFF7AE0182014
:2046D0008DF8060076E09DF8050014280BDC40480021152207F050F800999DF805203C4836
:2046F00005F0F8FE66E018208DF8060062E09DF8050014280BDC37480021152207F03CF8B5
:2047100000999DF80520334805F0E4FE52E018208DF806004EE09DF805000CF0F6FA0290A9
:204730000298B0B12C482D490068814203D02A4800680CF017FC029800999DF8052005F0BB
:20475000C9FE0298244908609DF805002449087030E013208DF806002CE09DF805000728F1
:2047700006D100999DF805201E4805F0B3FE21E018208DF806001DE002208DF8060019E08C
:204790009DF804000828F7D801A151F82000874619460000374600005F460000874600004B
:2047B000AF460000D7460000FF460000274700006B4700009DF806000EBDC046A00D002039
:2047D000740C0020890C0020350C00204A0C00209E0C00205F0C0020540D00203C0D00205E
:2047F000580D00203F0E00202DE9F0410446764DA178A869ADF1180D891F00F0DE80C91E99
:2048100000F0C980491E5FD0491E48D0C91E3CD0481E40F0D480287A697AB8B9687800285F
:2048300031D0A0880CF07AFF071C00F0C880A07A40080FD3787968B1E168890A0AD2B91D93
:2048500001AA05F03DF90A2804D10321A0880CF061FFB4E0287B022802D1A07A0009F4D3A5
:20487000A088797904F1080201F03CF9A869002800F0A5804368002B00F0A18000210A4643
:20489000A08898479BE00521E0E7002800F097804368002B00F0938062780221F0E70CF0C1
:2048B0008DFA002800F08B80A86950B1076847B1206900906189227B637BE01C3C46A047E2
:2048D0007DE060890121C2E767784FF00008002F52D1A17949084FD3EF69002F4CD101A865
:2048F00041460E220CF08FFCA0880CF017FF071C65D0606940B97879B91D06228DF80A0098
:2049100001A80BF0E7FF19E06669307C062206F111018DF80A0001A80BF0DCFF07F10C0046
:20493000B91D06220BF0D6FFB81D062206F111010BF0D0FF307C40F002007871A1799DF853
:204950001120C1F3800010438DF81100080905D39DF8110040F008008DF8110001A821468C
:2049700000F024F928B92878022103F00FFE404626E0A8694FF0150808B34368FBB1A08843
:20499000627801219847B8F1000F18D0A86943680321424674E7E078211D002205F090F894
:2049B0000A280CDA410001EB800004F10C0225300421C0B20BF0F6FC01E008F047FD012008
:2049D00006B0BDE8F081C0460802002000B5ADF12C0D8DF82200002120220DF1020006F03F
:2049F000CBFE00208DF8230000208DF825009DF82300411C8DF823100DEB00016348007863
:204A100088709DF82300411C8DF823100DEB00019DF8220088705DE09DF82300411C8DF842
:204A300023100DEB00015A480088001288709DF82300411C8DF823100DEB0001544800881C
:204A500000F0FF0088709DF82300411C8DF823100DEB00014F480088001288709DF82300B8
:204A7000411C8DF823100DEB00014A48008800F0FF00887034E09DF82300411C8DF8231036
:204A90000DEB000144480088001288709DF82300411C8DF823100DEB00013F48008800F02A
:204AB000FF0088709DF82300411C8DF823100DEB00013A480088001288709DF82300411C00
:204AD0008DF823100DEB00013448008800F0FF00887005E09DF82200C01E9DD0C01ECAD0CB
:204AF0004FF6FF70ADF8000000208DF824000EE09DF82410BDF800006944897808F064F915
:204B1000ADF800009DF82400401C8DF824009DF823009DF824108842EADC9DF82300411CFC
:204B30008DF823100DEB0001BDF8000000F0FF0088709DF82300411C8DF823100DEB000152
:204B5000BDF80000001288709DF82300002168448170144812490068B1FBF0F00CF0D6FD96
:204B700011489DF8232000680DF102010CF0DAFA0C480B490068B1FBF0F00CF0C7FD00203F
:204B90008DF823009DF825000BB000BD591F00204E1F0020501F0020521F00205819002055
:204BB000E0930400EC270100401F00202DE9FF478146704CDFF8C0A1E069884600284CD168
:204BD000B9F1000F00F09480B8F1000F00F0908048460AF093FE05460A2D257422DAD8F850
:204BF0001470002F37D0680010216A4600EB85002330C0B20BF07CF990B96846FF211022B4
:204C10000BF02CFD60B95046007838B999F80600494600F001000CF075FD01E00120A074AD
:204C3000E0691AE004F1E6070A2600253846FF2106220BF013FD68B9761E07F10E0705F161
:204C50000105F3D1607C002804BF0A2020744FD094F836502574E06900E0257C0A2D47DA09
:204C7000002835D168000E214A4600EB85002030C0B20BF097FB207C08F0EEFF6846FF21C1
:204C900010220CF0C0FA207C10216A467030C0B20BF088FB217C0E220801A0EB4100001954
:204CB0004946E6300BF016FED8F814206AB15046007840B9107C02F11101002300F0010065
:204CD0000CF01CFD01E00120A074C4F81C804CE08268002A3ED10269002A2FD142690ABBED
:204CF000C2683AB9A07B08B10AF01EFE0BF04BFB01203BE06800102100EB85002430C0B251
:204D10000BF050FBE769217CFA68480000EB8100103225300421C0B20BF044FBE169002068
:204D3000C86022E06800102100EB85002330C0B20BF038FBE1690020486116E068001C218F
:204D500000EB85002230C0B20BF02CFBE169002008610AE068001C2100EB85002130C0B258
:204D70000BF020FBE1690020886000200090BDE8FF87C046080200205A4F002090B503AFF0
:204D9000ADF11C0DADF8123003920291ADF8100000208DF81400FF208DF8150002990298D1
:204DB0000A78406861490BF049F870B93888009001200190BDF812300299039ABDF81000B4
:204DD00005F082FE8DF8140096E0029902980A78406857490BF032F8E0B9BDF812103888EB
:204DF0004018022803DD07208DF8140084E002983988BDF81220C0684018039905F06AFB65
:204E1000BDF8121038884018022875D100208DF8150071E0029902980A78406845490BF030
:204E30000DF8E0B9BDF8121038884018022803DD07208DF814005FE002983988BDF812208A
:204E5000C0684018039905F045FBBDF8121038884018022850D101208DF815004CE0029935
:204E700002980A78406834490AF0E8FFE0B9BDF8121038884018022803DD07208DF81400AE
:204E90003AE002983988BDF81220C0684018039905F020FBBDF812103888401802282BD165
:204EB00002208DF8150027E0029902980A78406822490AF0C3FFE0B9BDF812103888401811
:204ED000022803DD07208DF8140015E002983988BDF81220C0684018039905F0FBFABDF806
:204EF000121038884018022806D103208DF8150002E00A208DF814009DF81500FF2811D053
:204F10000F48006870B10E480068006850B10C489DF81510BDF812200068039B0468BDF85E
:204F30001000A0479DF8140007B090BD0A280100B52601009526010085260100A52601007A
:204F5000980D00202DE9F04FADF1140D0AF086FE039020B108F054F94FF0FF3003906A4C8A
:204F700004F10800006800B180475F4807780025029736E00098E16810F8062CA0F10C078B
:204F9000032A2CD0029E9DF8053056B1606A2946401E10F8012F934205D0761E01F1010166
:204FB000F7D1FF2600E0CEB250480068FF2E00F1080011D0387909F06FFFB979012904D045
:204FD000022904BF0099887001E000990870009930460BF07BF904E00068804701E001B12C
:204FF000884742480068C3690DF105016A4601A898470028BED03E4A029E11683046AE42BB
:20501000CCBF761B012690466F00CB5BDFF8E4B0DFF8E49023B96D1C761EEDB2F4D121E0BE
:20503000A8421FDD5E4630688047D8F80010002231F807A0CA53D9F8001088472F4850F819
:20505000252025705146284690470546FF20207030688047D8F800107A5A15437D52D9F885
:20507000001088470AF0FAFD07460398B8421DD007B9234FA069B84238BF071C5E463068F6
:205090008047824619480068016AE0698847226A16481C49521C00682262C56804F11C033B
:2050B0003846A84748460168504688470F48616802682069243291B9029ED8F800100025BF
:2050D000AE420EDD31F8150030B108480068416A20698847D8F800106D1CEDB2F0E71168B3
:2050F000884705B0BDE8F08FC7260100680E0020441F0020B00B0020B40B002030240100E2
:205110008EC2F528E1EE0000A40A002066480178002900D170472DE9F843491E032984B085
:2051300004D9891F012940F2BC80B4E05F4CDFF880912168DFF87C8108685F4E00F10805A3
:20515000062205F1080102A80BF0C4FB0622A91C68460BF0BFFB2878C1091D2700F00F02B5
:20517000032AC0F3801537D16079C0F3800081421ED12169062202A80BF088F800280AD00B
:20519000694628460CF032FB002804D0314668460CF028FBFF2879D04743D8F80000807AB5
:2051B000F519002818BF02280AD0012818BF03286CD1F25D691C48460CF09CFA102865D005
:2051D0006B46EA1D294648460CF090FA06226946E81D0BF07FFB59E000F00F00052860D19D
:2051F0006079C0F38000814250D12169062202A80BF04CF8002849D0694628460CF0F6FACA
:20521000002843D0314668460CF0ECFAFF283DD04743D8F80000807AF519002818BF01287E
:205230000AD0022818BF032830D1F25D691C48460CF060FA102829D040F2024009F098FB6E
:205250006B46EA1D294648460CF050FA06226946E81D0BF03FFBD8F80010F05D88760622DF
:20527000D8F80000691C14300BF034FB1348144A41F20441418041834186124801801249A8
:20529000124808600121107803F080F921680A680020107105E000200AF0C8FF86200CF022
:2052B0007DFA05B0BDE8F0836F4F0020F44B0020CC470020104F0020AC450020204A002010
:2052D0006E4F0020504F0020204F00204DC400002DE9F04FADF1240D079001F0A1FC604891
:2052F00000780AF0F3FB5F4D0024012806D90C3804D0401E0ED0401E09D006E00BF0E2F91F
:20531000022804BF01210C1C06D0696805E005211F2401E0032107246960534A1068C0F390
:205330008150012806D152F80C0C0127020E07FA02F004430BF022FD524AFF234018401E2A
:20535000471C28607F1E02F8013BFBD1079A1268002702F0FF03FE2B20D0DDF81CC09646D7
:205370003B4601260EF0FF02FF2A10D0904205D3914203D806FA02F2144201D002206CE08C
:2053900017430EF0FF02DFF8FCE00EF802305CF804EF5B1C0EF0FF02FE2AE5D1092003F002
:2053B00083FE07980121A86005F128000AF00CFA05F19806A8464FF0010A4FF0040B002536
:2053D000A9460AFA05F0044216D1074204BF05F0FF0141F4C04104D02A480799405D51F8A5
:2053F0002010224803F064F8E8B24FF0FF310BF03DF8C6F8009001E0C6F800B0D8F800000E
:205410006D1C361D8542DCD904A80BF06EFC184C184A2078102104AB059008F10C0009F042
:20543000B3F968460BF0B2FCCDF80C906A4660681149029008F1640009F07CFA0F4951F827
:205450000D0C20F4F85040F4005041F80D0C0C4FC1F8FFAF4846C7F800A009B0BDE8F08F65
:205470005A1F0020AC040020B43F0050007FC7678827010099040100D9E300000D30094033
:2054900008000940F004002000B5ADF12C0D019100900198800FC0F0AB80002007F0EAFAEB
:2054B00054480AF063FE012004F047FD524940F60A0008805149002008805148504900783D
:2054D00020F00F0008704F49002008604E484E49007820F00F0040F001000870009804F00C
:2054F000DBFC0098806806900098002141740698079002E00798406807900798406830B124
:2055100007984068008840F60A018142F2D13A49079841600799487B20F00F0048733B4862
:205530000BF0D4FC0890089888B10898C068008840F60301814206D00898C068008840F676
:205550000401814203D132490020086021E00098008CF0B1009820300990099800214180D2
:205570000998002141600999087B20F00F00087309980999407B20F00F0040F001004873F0
:2055900020490998086020481F49007820F00F000870069802A90AF089FD02A80BF0DEFB63
:2055B0000BF08EFA1C481B4908601C48007830B108F02AFF0028FBD00BF00FFE11E01848FE
:2055D000006801680120884701280AD007980799407B20F00F0040F00100487311480D4943
:2055F000086006980AF0C2FD0699012008F0DAFC0BB000BD01010E041C1E00201E1E00200C
:20561000281E0020201E0020291E0020C81D0020741E0020841E0020FD2900008D1E0020E5
:20563000E0010010B1D0000080B502AFADF1180D029301920091ADF80C0000208DF8100020
:2056500000990098496840680978407801F0FF0100F0FF0001EB0021ADF80E108AE038889D
:20567000082803D907208DF81000A1E03888B988C0F10800884201D9B88802E03888C0F1E0
:205690000800029908804C4A39888918029A0198128804F01FFF8BE00098C0680BF09CFA3A
:2056B000ADF814003988BDF81400884203DA07208DF810007CE03988BDF81400401AB988B3
:2056D000884201DDB88803E03988BDF81400401A0299088000993A88C9688918029A019886
:2056F000128804F0F7FE63E0344839880078884203DA07208DF810005AE0304839880078D1
:20571000401AB988884201DDB88803E02B4839880078401A0299088029493A8809688918A4
:20573000029A0198128804F0D5FE41E03888072803D907208DF810003AE03888B988C0F14F
:205750000700884201D9B88802E03888C0F10700029908801B4A39888918029A019812883B
:2057700004F0B8FE24E00298002101800A208DF810001DE0BDF80E0042F62321401A0728AB
:2057900002D92D38D2D0EEE701A151F8200087466F560000A9560000A9560000A9560000A8
:2057B000A9560000A9560000A9560000F95600009DF8100006B080BDA00D0020580D0020A3
:2057D000540D00203F0E00202DE9F843614C5A4D5A4EDFF870815E4F94F8E4100846401EDD
:2057F0000B2864D8DFE800F07B2C43062343062343067664042907D001220A2945F8212CED
:2058100014BF0220032004E0202045F8210C0120024684F8E200002045F8390C0827C5F87D
:20583000FF7FC5F8F37F45F8392CBDE8F883052914BF09200620002784F8E400376075E026
:2058500094F8E170383D0120002FC5F81B0004BF0620002102D00021F160032084F8E400ED
:20587000032045F8010C3160306880085ED294F8E4103348012703290ED000684568002167
:205890006022052300914046A84794F8E400062814BF0A200720CFE7006845680021602218
:2058B0000523022000904046A8470420C4E7FEE72548264F0026012506600E203D6003F083
:2058D00037FB022009F030FC84F8E45084F8E360BDE8F883002038600C25786024E04FF0AC
:2058F0008059D9F8A0010168202088472C3D0F2045F8010C41F61D56C5F80360D9F8A401B3
:20591000466800214FF4C0720723022540460095B047D9F8A401C66800214FF4C07207236C
:205930004046B0470120386084F8E45004F178000BF041FCBDE8F88339400C4038600C4003
:20595000A401001000A00C402C500C4004800C4034600C40C005002000B5ADF1240D03931F
:20597000029201910090009858B1019848B1029838B1039828B10398006A10B10398406A2C
:2059900048B9039820B103986FF0010180F82C106FF001009FE00398816A504800680BF07A
:2059B000DDFE039981F82C00039890F92C0038B903986FF0020180F82C106FF002008AE0FE
:2059D0000398039A016A03985288007800EB400012180C3290B288474149086058B93F48F9
:2059F00000680BF0B7FE03984FF0FF3180F82C104FF0FF306FE0039841883948006840185F
:205A10000490039804990078001D40180590039805990078001D40180690039806F03AFFA2
:205A300003980078C01C411000EB917004998010086003980078C01C411000EB91700599CB
:205A50008010086003980078C01C411000EB9170069980100860039A049800991278001D02
:205A700004F038FD04980499059A069B0BF03AFE8DF81C00039A059901981278091D04F028
:205A900029FD039A069902981278091D04F022FD0398039900784A8800EB40001218104809
:205AB0000068002105F068FE0398416A0C48006888470A4800680BF04DFE9DF81C009928AF
:205AD00002D100208DF81C009DF91C00039981F82C009DF91C0009B000BDC04604110020CC
:205AF000884F00202DE9F04190460E460446ADF1A80D0BF013FE071C00F0AB806846002178
:205B1000A4220BF080FBADF80040554C279B534AE57AE0788DF8A0501A40A57A8DF8040026
:205B3000290105F0030305F00400257B134301F480721A43484B01F4C061022D03EA020333
:205B500041EA030140EA010027904FF0000008BF01208DF837000BF0C1FD412809DB207BA0
:205B700000280CBF002008209DF8991008438DF89900607B002804BF00208DF8380017D0A9
:205B900001208DF8380004F1860120220DF139000AF0A0FE0DF1590004F1A60120220AF05B
:205BB00099FE0DF1790004F1C60120220AF092FEA07940B18DF8260004F1500110220DF114
:205BD00027000AF087FE607938B104F16000B91D062205460AF05AFB68B92079002804BFBB
:205BF00000208DF8050016D08DF8050004F140010DF106000CE0607905F1160110228DF8B8
:205C100005000DF106000AF065FE0DF11600A91D10220AF05FFEE07920B11EB1279941F0C1
:205C300002012791002100B10121A7789DF89900002F41EA00018DF899100CBF00200420C0
:205C50009DF8991008438DF89900414668460BF041FD2AB0BDE8F081FBF9FFFFFCFEFFFF45
:205C700008020020F8B5414C414B2568186855F8183F00224FF0FF3198473E483E4A416B49
:205C90003E4D88683E4E4179117000270BF01EFD3C480BF017FD0BF011FD3B4802680021CB
:205CB0005171A02301680722CB804A720321026811720021036859774FF4C0740268D17621
:205CD000036883F85C10012102681177036883F85D100021006880F85E100CE06868F9B225
:205CF000614308444079012804D1F8B20AF02EFF0BF0E0FC7F1C3178F8B28842EED30BF0D1
:205D1000D5FC2248224A0178117008F04FFE0BF0C9FC2049204A002008700021117001209F
:205D30001E4A10701E4A11701E4A10701B201E4A11701E4A11701E4A11804FF4A4711D4AD5
:205D50001080FB201C4A11801C4A1D49108040F648000880FB211B4A11801B4A10800BF02D
:205D70009DFC1A4900200870F2BD00BFF04E0020EC4E002034280100714F0020684E002046
:205D90007B4F0020CC470020104F00206D4F00207A4F0020734F0020744F0020754F0020E9
:205DB000764F0020774F0020784F0020794F0020524F0020444F0020464F0020484F002059
:205DD0004A4F00204C4F00204E4F00206F4F002053480178042900D870472DE9F84F891FCF
:205DF0002FD0491E012900F29080DFF838A19AF80200FF2825D00AF0A9FE83460BF16C07C8
:205E100078680BF047FC804698F80400032818D1D8F80800047814F0030404D17868BDE82D
:205E3000F24F0BF033BC4578032C00F102090BF20F160BD035B1387820B93D217170012073
:205E500030706AE038480178012966D09BF8940058B32D1FEDB24B462A46214658460BF0D1
:205E700011FC40B93D20707001203070BDE8F24F2E480BF003BC2E480168884706469BF86B
:205E90000620DAF804104FF4C07042438818002180F839110BF59A7001688079490806F0B8
:205EB000C7F924490A68304690470020032CC8F8080016D0204841690878820707D5C0072B
:205ED0004CBF03200020401919F8000000E08120387223469AF802002A4649460BF0CAFB13
:205EF0000AE00F480178082903D04946584609F0C9FA484607F02EFA78680BF0C7FB41461A
:205F10005846BDE8F44F0BF0B1BB00200AF08EF9BDE8F24F86200BF041BCBDE8F18F00BF7B
:205F30006F4F0020684E0020794F0020AC450020B00B0020B40B00203428010000B5ADF13A
:205F5000240D0291019001F009FD4748474A006800214FF0FF330BF085FB039003980028FA
:205F7000F3D0002004900DF1160104AA05A807F0E3FD30BBBDF8140010281DD13C489DF860
:205F900016100078884217D104980690069800884FF6FF7181420CD106984088C00B0BD3E5
:205FB00034483549042204230090102003F08CFC02E0049805F0CEFC049810B104980AF01F
:205FD00033FE0398400840D32C48007818B92C480078002839D02A48007818B103208DF855
:205FF00018000EE0274800788DF81800264800788DF8190025490A680DF11A000260898818
:206010008180234800788DF82000224800788DF8210017480178502007F080FF1E490246F2
:2060300006AB102003F050FC78B11C49082008701B48006848B11A480068006828B11848D3
:20605000006801681548007888470398800803D31449002002F084FD0398C008FFF475AF58
:2060700007F08AFC71E7C0465C1E002007000080581E0020641E0020B5030100D00B002028
:20609000D10B0020681E0020691E0020460E00206A1E00206B1E002059440110601E002096
:2060B000E40B0020740D00208FB506AF029301920091ADF80C0000208DF80E0000990098D9
:2060D0000A7840684E4909F0B9FEE8B93888022803DD07208DF80E008EE03888B988C0F1FA
:2060F0000200884201DDB88802E03888C0F102000299088000993A88C9688918029A0198CC
:20611000128804F0E7F977E0009900980A7840683C4909F093FEE8B93888022803DD0720AE
:206130008DF80E0068E03888B988C0F10200884201DDB88802E03888C0F102000299088060
:2061500000993A88C9688918029A0198128804F0C1F951E0009900980A7840682A4909F08D
:206170006DFEE8B93888022803DD07208DF80E0042E03888B988C0F10200884201DDB888C1
:2061900002E03888C0F102000299088000993A88C9688918029A0198128804F09BF92BE0E8
:2061B000009900980A784068184909F047FEE8B93888022803DD07208DF80E001CE03888F4
:2061D000B988C0F10200884201DDB88802E03888C0F102000299088000993A88C96889182E
:2061F000029A0198128804F075F905E00298002101800A208DF80E009DF80E0000908FBD01
:20621000B52601009526010085260100A52601002DE9FF4104466668A7680D460AF0D3FFC2
:206230003178012903D10BF0BDFA00208AE0012131700BF0B7FA287870706878B0706868AC
:206250007060A868B060E868F06028693061287D3075687D7075A87DB075A869B061287F55
:206270003077687F7077A87FB0774FF00008C6F82080C6F83080454675627563B562B563CF
:2062900086F82C5086F82D50786802F00DFF204604F09EFA204604F0E7FA60B9386809F03C
:2062B00015FF786802F044FE0AF08DFF35700BF079FA2C4645E068460AF017FD0094387B73
:2062D000224A0190B9686B4606F17C0008F05CFA68460AF05BFD00941D4938696A46029041
:2062F00006F1980008F026FBB07830B906F1CC00294609F069FA17483061707830B906F18F
:20631000E800294609F060FA1348F06068460AF0F5FE01958DF800501049029406F5827036
:206330000A226B4607F06AF8B969FA6906F13C000AF0A7FC0A4A06F168000421234609F088
:20635000D9FB20460090BDE8FF81C0460D66000011A90000671101005F110100D1DD000073
:206370009D0E0100F0B5514C20780D46E90BADF11C0DC90372D1A80860D2E069216A6A0842
:206390000ED2E80828BF85F0040580F08C80680904D305F0F5F885F0100584E0002083E0A1
:2063B000868861B904F11600414A00904FF6FF71022301200BF052F90146216221B304A8F4
:2063D00000900027019702230293FF220392E28A30460DF11203FEF70BF858B99DF8130048
:2063F0009DF81220216A12EB002204D04989304607F054F8216AE28A08463B464FF6FF7142
:206410000BF098F901462162A069002918BF85F001051AD168B143685BB1E0698088012164
:2064300000229847A069E7694368B8880321002298470AF07DF885F0010534E0002001467D
:20645000FEF7B4FB18B185F00205012102E0022185F00205207802F099F824E005F06AFD25
:20647000071C1ED038780126B03811D0401E02D01F3808D011E0387978B97888F9883A89E5
:2064900007F00CF80AE03846FEF7AEF9064604E0397907F108000BF0DDF816B1384609F0FD
:2064B00005FF85F40045A8B207B0F0BD080200200A28010000B5ADF1140D00F0B1FB314965
:2064D000086840F00200086068460AF05FFC2E48007802902E492D486A4608F02BFA2D48F1
:2064F0002D496A4608F026FA68460AF0FEFB2B48007801902B4A2A4819216B4608F044F92A
:2065100029482A4A1A216B4608F03EF9284829490022002306F072FF2748284900220023B8
:2065300006F06CFF2648274A0421002309F0E2FA25480078012802D10E2002F0B5FD2348D0
:206550000AF0B3FA22480AF0B0FA22490020087021490020087021490020086020490020F6
:2065700008702049072008701F49002008601F49052008601E49002008701F481D49086072
:2065900005B000BD002009401D270100201C00209D010100541C0020E97100001C270100A2
:2065B000E41D00207DC30000001E0020199C0000D01C0020ADF70000AC1C002099FD000049
:2065D000301E002079C700001E270100D01D0020C81D0020801E00208C1E0020881E002057
:2065F0008D1E0020301B0020741E0020781E00206C1E0020841E0020717A00002DE9F84F39
:206610008046D8F808603068D8F80450076CDFF830B14764AB6B6A6C286C17F4F06F194691
:20663000A0EB020934D1F8091ED2780974D3B1B196F821205846801D845C601E814294BF16
:206650001C1C641E4046214609F04DF8A86B001BA86361D105F1980001210AF0CAFD4046E3
:20667000494609F00FFB57E00029F8D0404609F03AF895F82D10A86311B900284CD101E0DA
:206690000020A86305F1980001210AF0B2FD43E0F80A20D24FF0000A544602E0AB6B5B1EFB
:2066B000AB6393B14046012109F01DF83068446814F00F04C0F804A0F0D0286B401E2863CF
:2066D000686B401E6863A86BE8B905F1980001210AF08FFD13E0306844680022202904F02E
:2066F0000F044260CCBF4FF0200A9A464046514608F0F9FFCAF120008145C8BF8146494676
:20671000404609F0BFFAEC77404605F063FE726A12B1404621469047B8090FD3A96A69B1BF
:206730000F46404608F0F6FFA86238B996F820205946895C4046C91906F0A0FFBDE8F88F0B
:206750007823010000B5ADF1340D03930292019100900AF07BFF0490049805F03DFF059043
:20677000002006900AF0B2FC8DF828009DF8280018B19DF82800012802D16FF004007FE0FD
:20679000059810B96FF004007AE0009810B90020079010E00098B0F1FF3F03D14FF0FF3005
